{
  "contractName": "Adoption",
  "abi": [
    {
      "constant": true,
      "inputs": [
        {
          "name": "",
          "type": "uint256"
        }
      ],
      "name": "price",
      "outputs": [
        {
          "name": "",
          "type": "uint256"
        }
      ],
      "payable": false,
      "stateMutability": "view",
      "type": "function"
    },
    {
      "constant": true,
      "inputs": [
        {
          "name": "",
          "type": "uint256"
        }
      ],
      "name": "adopters",
      "outputs": [
        {
          "name": "",
          "type": "address"
        }
      ],
      "payable": false,
      "stateMutability": "view",
      "type": "function"
    },
    {
      "constant": true,
      "inputs": [],
      "name": "getAdopters",
      "outputs": [
        {
          "name": "",
          "type": "address[16]"
        }
      ],
      "payable": false,
      "stateMutability": "nonpayable",
      "type": "constructor"
    },
    {
      "constant": false,
      "inputs": [
        {
          "name": "petId",
          "type": "uint256"
        }
      ],
      "name": "adopt",
      "outputs": [
        {
          "name": "",
          "type": "uint256"
        }
      ],
      "payable": false,
      "stateMutability": "nonpayable",
      "type": "function"
    },
    {
      "constant": true,
      "inputs": [],
      "name": "getAdopters",
      "outputs": [
        {
          "name": "",
          "type": "address[16]"
        }
      ],
      "payable": false,
      "stateMutability": "view",
      "type": "function"
    }
  ],
  "bytecode": "0x608060405234801561001057600080fd5b5060008090505b601081101561004857670de0b6b3a764000060108260108110151561003857fe5b0181905550806001019050610017565b50610368806100586000396000f3fe608060405260043610610062576000357c0100000000000000000000000000000000000000000000000000000000900463ffffffff16806326a49e37146100675780633de4eb17146100b657806343ae80d3146101095780638588b2c514610184575b600080fd5b34801561007357600080fd5b506100a06004803603602081101561008a57600080fd5b81019080803590602001909291905050506101d3565b6040518082815260200191505060405180910390f35b3480156100c257600080fd5b506100cb6101ed565b6040518082601060200280838360005b838110156100f65780820151818401526020810190506100db565b5050505090500191505060405180910390f35b34801561011557600080fd5b506101426004803603602081101561012c57600080fd5b810190808035906020019092919050505061026e565b604051808273ffffffffffffffffffffffffffffffffffffffff1673ffffffffffffffffffffffffffffffffffffffff16815260200191505060405180910390f35b34801561019057600080fd5b506101bd600480360360208110156101a757600080fd5b81019080803590602001909291905050506102a3565b6040518082815260200191505060405180910390f35b6010816010811015156101e257fe5b016000915090505481565b6101f5610318565b6000601080602002604051908101604052809291908260108015610264576020028201915b8160009054906101000a900473ffffffffffffffffffffffffffffffffffffffff1673ffffffffffffffffffffffffffffffffffffffff168152602001906001019080831161021a575b5050505050905090565b60008160108110151561027d57fe5b016000915054906101000a900473ffffffffffffffffffffffffffffffffffffffff1681565b60008082101580156102b65750600f8211155b15156102c157600080fd5b336000836010811015156102d157fe5b0160006101000a81548173ffffffffffffffffffffffffffffffffffffffff021916908373ffffffffffffffffffffffffffffffffffffffff160217905550819050919050565b6102006040519081016040528060109060208202803883398082019150509050509056fea165627a7a723058205242e7e25060726b5a3820c89734b6d8f9a5b7ab774b391d2529aec76cfc63570029",
  "source": "pragma solidity ^0.5.0;\n\ncontract Adoption {\naddress[16] public adopters;\nuint[16] public price;\n\nconstructor() public {\n    for (uint i=0;i<16;++i) {\n        price[i] = 1 ether;\n    }\n}\n\n// Adopting a pet\nfunction adopt(uint petId) public returns (uint) {\n    require(petId >= 0 && petId <= 15);\n    adopters[petId] = msg.sender;\n    return petId;\n}\n\nfunction getAdopters() public view returns (address[16] memory){\n    return adopters;\n\n}\n}",
  "sourcePath": "/Users/pmpmpm/Documents/github/truffle/pet-shop-tutorial/contracts/Adoption.sol",
  "compiler": {
    "name": "solc",
    "version": "0.5.0+commit.1d4f565a.Emscripten.clang"
  },
  "schemaVersion": "3.0.9",
  "updatedAt": "2019-05-18T06:50:40.674Z",
  "devdoc": {
    "methods": {}
  },
  "userdoc": {
    "methods": {}
  }
}